:020000040000FA
:100000000C9458000C9480000C9480000C94800098
:100010000C9480000C9480000C9480000C94FF04DD
:100020000C9480000C9480000C9480000C94800050
:100030000C9480000C9480000C9480000C94800040
:100040000C9496030C9480000C9480000C94800017
:100050000C9480000C9480000C9480000C94800020
:100060000C94E0030C9480000000000025002800A0
:100070002B00040404040404040402020202020229
:10008000030303030303010204081020408001025C
:1000900004081020010204081020000000080002DB
:1000A00001000003040700000000000000007C05C0
:1000B00011241FBECFEFD8E0DEBFCDBF11E0A0E01E
:1000C000B1E0EEE2FFE002C005900D92A234B1076C
:1000D000D9F722E0A2E4B1E001C01D92A433B20737
:1000E000E1F710E0C8E5D0E004C02197FE010E94CE
:1000F0008F07C735D107C9F70E9495050C9495075E
:100100000C94000008950895AF92BF92CF92DF92B1
:10011000EF92FF920F931F93CF93DF936C017B01BC
:100120008B01040F151FEB015E01AE18BF08C0174D
:10013000D10759F06991D601ED91FC910190F081C0
:10014000E02DC6010995892B79F7C501DF91CF9183
:100150001F910F91FF90EF90DF90CF90BF90AF90E5
:10016000089590E0FC01E656FF4F2491FC01EA5708
:10017000FF4F3491FC01EE58FF4FE491EE23C9F09C
:10018000222339F0233001F1A8F4213019F1223073
:1001900029F1F0E0EE0FFF1FE859FF4FA591B49150
:1001A0008FB7F894EC91611126C030953E233C93B3
:1001B0008FBF08952730A9F02830C9F0243049F7BF
:1001C000809180008F7D03C0809180008F77809325
:1001D0008000DFCF84B58F7784BDDBCF84B58F7D82
:1001E000FBCF8091B0008F778093B000D2CF809109
:1001F000B0008F7DF9CF3E2BDACF3FB7F8948091D6
:10020000AF019091B001A091B101B091B20126B5BA
:10021000A89B05C02F3F19F00196A11DB11D3FBF3E
:10022000BA2FA92F982F8827BC01CD01620F711D0D
:10023000811D911D42E0660F771F881F991F4A9507
:10024000D1F70895089520918701260F3327331F92
:1002500021323105ECF42091F401FC0190E080E0C2
:10026000243069F082E00895A09187012191AC01CA
:1002700049595E4FA40FB52FB11D2C9301968617D7
:1002800098F380918701680F6093870180E008955B
:1002900081E008951092F40181E08093F3011092BF
:1002A000CE0161E082E10E94B10061E083E10E9441
:1002B000B100E9EBF0E080818E7F808380818D7FCB
:1002C000808388E48093B80085E48093BC0008951F
:1002D000CF93DF9391E0909366018823B9F0C091AA
:1002E000B800D091BA008091BC008A7B8093BC009A
:1002F00060E082E10E94B10060E083E10E94B10011
:100300000E944A01D093BA00C093B800DF91CF9108
:100310000895CF92DF92EF92FF920F931F93CF93A6
:10032000DF93D0911D0281E0D13208F09CC0C091D2
:100330001C020E94FD006B017C018091F40181117F
:100340006CC082E08093F40181E08093F3018FEF31
:100350008093F2011092F101D093F001ACEFB1E083
:10036000E0EDF1E080E0D8138DC01092CF018091D4
:10037000CF01CC0FC82BC093CF018091CE0181302B
:1003800009F084C01092CE010E94FD006B017C0137
:100390008091CF018093BB008091F6019091F7018D
:1003A000A091F801B091F901892B8A2B8B2BA1F038
:1003B0000E94FD000091F6011091F7012091F801D3
:1003C0003091F9016C197D098E099F0906171707ED
:1003D0002807390708F442C08091BC0083FDD8CFBC
:1003E00085EC8093BC000E94FD006B017C01809134
:1003F000F401823009F44CC08091F2018F3F09F47E
:1004000069C08091F201803209F466C08091F201E6
:10041000803309F463C084E026C08091F601909196
:10042000F701A091F801B091F901892B8A2B8B2B50
:1004300009F483CF0E94FD000091F6011091F701AD
:100440002091F8013091F9016C197D098E099F09FD
:10045000061717072807390708F06FCF8091F501B5
:100460000E94680185E01092FB0110921D0210921B
:10047000FA01DF91CF911F910F91FF90EF90DF90E4
:10048000CF9008959D9191938F5F6DCF85EEA9CF09
:100490008091F6019091F701A091F801B091F901D6
:1004A000892B8A2B8B2B09F4A2CF0E94FD0000918F
:1004B000F6011091F7012091F8013091F9016C19C2
:1004C0007D098E099F09061717072807390708F0C5
:1004D0008ECFC4CF80E0C7CF82E0C5CF83E0C3CF4B
:1004E0000895E091B8018091B701E81730F4F0E089
:1004F000EA5BFE4F808190E008958FEF9FEF0895B3
:100500009091B8018091B7012FEF3FEF981748F411
:10051000E92FF0E0EA5BFE4F208130E09F5F90938F
:10052000B801C90108958091B7019091B801891B64
:10053000990B0895CF92DF92EF92FF920F931F9342
:10054000CF93DF937C01CB018A012091FA01222312
:1005500089F0EB016B01C40ED51ECC15DD0569F0E9
:100560006991D701ED91FC910190F081E02DC701D7
:100570000995F3CF642F0E942301C801DF91CF9129
:100580001F910F91FF90EF90DF90CF900895CF9340
:10059000DF931F92CDB7DEB769832091FA01222342
:1005A000F9F020911D02203258F021E030E0FC01EA
:1005B0003383228390E080E00F90DF91CF91089504
:1005C0008091FB01E82FF0E0E450FE4F9981908389
:1005D0008F5F8093FB0180931D0281E090E0ECCF60
:1005E00061E0CE0101960E942301F7CFCF93DF9304
:1005F000EC0181E08093FA018EE380931C0210925B
:10060000FB0110921D0268818EE192E00E94C702F8
:1006100069818EE192E00E94C702DF91CF910C9434
:100620008901CF93DF9300D0CDB7DEB790E89983EF
:100630008A83CE0101960E94F6020F900F90DF91FF
:10064000CF910895CF93DF9300D0CDB7DEB780E48C
:1006500089836A83CE0101960E94F60281E090E0D0
:100660000F900F90DF91CF910895CF93C62F91E017
:100670009093FA0192E690931C021092FB01109263
:100680001D02682F8EE192E00E94C7026C2F8EE15E
:1006900092E00E94C702CF910C94890190E080E023
:1006A0000895FC0101900020E9F73197AF01481B44
:1006B000590BBC018AE292E00C94840085ED809392
:1006C000BC008091F6019091F701A091F801B091E2
:1006D000F9010796A11DB11D23E0B695A795979541
:1006E00087952A95D1F72091BC0024FD03C0109274
:1006F000F40108954091F6015091F7016091F801DD
:100700007091F901452B462B472B69F30097A10502
:10071000B10541F02AE22A95F1F700C00197A1093D
:10072000B109E1CF8091F5010C9468011F920F92FD
:100730000FB60F9211242F933F938F939F93AF93F4
:10074000BF938091AB019091AC01A091AD01B091AC
:10075000AE013091AA0123E0230F2D3758F5019601
:10076000A11DB11D2093AA018093AB019093AC0110
:10077000A093AD01B093AE018091AF019091B00113
:10078000A091B101B091B2010196A11DB11D80935C
:10079000AF019093B001A093B101B093B201BF91AA
:1007A000AF919F918F913F912F910F900FBE0F901E
:1007B0001F90189526E8230F0296A11DB11DD2CFD8
:1007C0001F920F920FB60F9211242F933F934F93C6
:1007D0005F936F937F938F939F93AF93BF93EF93A9
:1007E000FF938091B900887F803609F44AC0F0F504
:1007F000883209F4A7C018F5803109F49BC0B8F419
:10080000882309F4F9C0883009F494C0FF91EF916E
:10081000BF91AF919F918F917F916F915F914F9118
:100820003F912F910F900FBE0F901F901895883118
:1008300009F488C0803251F78093F20114C08034EB
:1008400009F49DC040F48033B9F38833F9F68093FE
:10085000F20185ECB0C0803509F485C0883509F413
:1008600096C0883499F60E945E03D0CF883909F487
:100870008CC038F5883729F050F4883611F080376D
:1008800029F683E08093F4011092A90157C08838BB
:1008900009F47BC0803919F0803809F0B7CF809116
:1008A000A901803208F071C0E091A90181E08E0FAA
:1008B0008093A9018091BB00F0E0E757FE4F808351
:1008C0003DC0803B39F0E0F4803A09F479C0883AC1
:1008D00009F09CCF84E08093F4011092880110927B
:1008E0008701E091B501F091B601099580918701EA
:1008F00081110FC081E0809387011092670109C0C8
:10090000803C09F4A6CF883C09F4A3CF883B09F0CA
:100910007DCFE091880181E08E0F80938801F0E027
:10092000E959FE4F80818093BB00909188018091AE
:10093000870129C08091CF018093BB0085EC809313
:10094000BC0064CF9091F1018091F001981758F5A7
:10095000E091F10181E08E0F8093F101F0E0E0532E
:10096000FE4F8081E9CFE091F10181E08E0F80930D
:10097000F1018091BB00F0E0E053FE4F8083909145
:10098000F1018091F0019817C8F285E8D8CFE09185
:10099000F10181E08E0F8093F1018091BB00F0E0C6
:1009A000E053FE4F80838091F30181115CCF81E0A1
:1009B0008093CE0184EA8093BC001092F40126CF8C
:1009C00085EC8093BC001092F4018091A9018032E3
:1009D00030F4E091A901F0E0E757FE4F10826091FA
:1009E000A90170E0E091B301F091B40189E891E0D0
:1009F00009951092A9010ACF1092F20134CF1F92EB
:100A00000F920FB60F9211240F931F932F933F93C2
:100A10004F935F936F937F938F939F93AF93BF9306
:100A200040918400509185008091C0019091C10156
:100A3000B09B0EC021E026BB9C012F5F3F4F30933F
:100A4000C1012093C00141150AEF500708F4C90104
:100A50002091C2013091C3012F5F3F4F6091BA01D5
:100A60007091BB012617370708F441C01092C301EB
:100A70001092C201B0E0A0E0DC0199278827840F22
:100A8000951FA11DB11D4091BC015091BD01609108
:100A9000BE017091BF018C019D01041B150B260B3B
:100AA000370BB901A8014093C5015093C60160936B
:100AB000C7017093C8018093BC019093BD01A093BE
:100AC000BE01B093BF0181E08093C401BF91AF919B
:100AD0009F918F917F916F915F914F913F912F9156
:100AE0001F910F910F900FBE0F901F90189530938C
:100AF000C3012093C201EACFEEE1F2E01382128239
:100B000088EE93E0A0E0B0E084839583A683B7836A
:100B100084E091E091838083EAE2F2E01382128222
:100B200086E191E0918380830895CF93DF93CDB7E1
:100B3000DEB7A1970FB6F894DEBF0FBECDBF789495
:100B400084B5826084BD84B5816084BD85B58260D2
:100B500085BD85B5816085BD80916E008160809383
:100B60006E001092810080918100826080938100EC
:100B700080918100816080938100809180008160FC
:100B8000809380008091B10084608093B100809157
:100B9000B00081608093B00080917A00846080937F
:100BA0007A0080917A00826080937A0080917A0046
:100BB000816080937A0080917A00806880937A00C7
:100BC0001092C100529A1092B8011092B70110927F
:100BD000FB0110921D020E944A0182E890E090936E
:100BE000B6018093B50183E890E09093B4018093BF
:100BF000B30180912E02982F986090932E0212E0FC
:100C00001093320210923302EBE3FDE03197F1F7DB
:100C100088620E9411038BE496E40197F1F78091BA
:100C20002E0280620E94110383E592E00197F1F7A2
:100C300080912E0280620E94110380912E028062B8
:100C40000E94110384E080932F028CE00E94110324
:100C500081E00E9411038BE39FE10197F1F710936C
:100C6000300286E00E94110360E080E00E943503BC
:100C70006FEF88E00E94350360E281E00E94350357
:100C80006FEF84E00E9435036FEF83E00E9435032D
:100C90006FEF82E00E94350368E284E00E94350332
:100CA00068E283E00E94350368E282E00E94350337
:100CB0009BE3292E9FE1392E2AE0422E512C612CF4
:100CC000712C60E082E00E94B1000E94FD004B01A7
:100CD0005C018EE6C82ED12CE12CF12C0E94FD0087
:100CE000681979098A099B09683E73408105910555
:100CF000A8F321E0C21AD108E108F10838EE830E0A
:100D000033E0931EA11CB11CC114D104E104F10411
:100D100029F761E082E00E94B1001092C3011092B5
:100D2000C2011092C1011092C0011092BC01109238
:100D3000BD011092BE011092BF011092C4018091BA
:100D400080008093CC01809181008093CB01109230
:100D5000810010928000109285001092840081E042
:100D600086BB10926F008091B0008093CA01809181
:100D7000B1008093C9011092B10082E08093B0006D
:100D8000FCE7F093B30026E02093B90187BB1092F3
:100D9000B200E1E7F0E0F093BB01E093BA019FB746
:100DA000F89483BD2091B9012093B1008093700025
:100DB0008BE08150F1F7F7E0F09381009FBF8091C5
:100DC000C4018823E1F32FB7F8948091C501909175
:100DD000C601A091C701B091C8011092C4012FBFF4
:100DE0008093CD011092B100109270008091CA01E1
:100DF0008093B0008091C9018093B100109281006E
:100E00008091CC01809380008091CB018093810000
:100E100081E00E941103C1010197F1F78091CD019A
:100E2000811118C08EE191E00E94510320E82983CE
:100E300030EC3A83CE0101960E94F6028EE291E0F8
:100E40000E94510320E030E0232B09F43ACF0E94A6
:100E5000000037CF80E8898393E89A83CE0101961A
:100E60000E94F6028091CD01843628F460E28AE285
:100E700092E00E9422038091CD018A3028F460E242
:100E80008AE292E00E9422032091CD0130E050E0FE
:100E900040E019A28E010F5D1F4FCA01B901A301E5
:100EA00092010E946D07605DF80162938F01211528
:100EB00031054105510589F7309761F00190002017
:100EC000E9F73197AF01401B510BB8018AE292E07C
:100ED0000E9484008BE391E0B3CFA1E21A2EAA1BFB
:100EE000BB1BFD010DC0AA1FBB1FEE1FFF1FA217DA
:100EF000B307E407F50720F0A21BB30BE40BF50BD7
:100F0000661F771F881F991F1A9469F7609570955F
:100F1000809590959B01AC01BD01CF010895EE0F26
:100F2000FF1F0590F491E02D0994F894FFCF000085
:100F30000000C7029A024E037002930280027102FF
:100F400000000000220384004E03220152696E67F4
:100F5000756C61746F722076312E31004C69737438
:100F6000656E696E672E2E2E002052696E677300C3
:107E0000112484B714BE81FFF0D085E080938100F7
:107E100082E08093C00088E18093C10086E0809377
:107E2000C20080E18093C4008EE0C9D0259A86E02C
:107E300020E33CEF91E0309385002093840096BBD3
:107E4000B09BFECF1D9AA8958150A9F7CC24DD24C4
:107E500088248394B5E0AB2EA1E19A2EF3E0BF2EE7
:107E6000A2D0813461F49FD0082FAFD0023811F036
:107E7000013811F484E001C083E08DD089C08234E0
:107E800011F484E103C0853419F485E0A6D080C0E4
:107E9000853579F488D0E82EFF2485D0082F10E0AE
:107EA000102F00270E291F29000F111F8ED06801E7
:107EB0006FC0863521F484E090D080E0DECF843638
:107EC00009F040C070D06FD0082F6DD080E0C81688
:107ED00080E7D80618F4F601B7BEE895C0E0D1E017
:107EE00062D089930C17E1F7F0E0CF16F0E7DF06D8
:107EF00018F0F601B7BEE89568D007B600FCFDCFD4
:107F0000A601A0E0B1E02C9130E011968C91119780
:107F100090E0982F8827822B932B1296FA010C0160
:107F200087BEE89511244E5F5F4FF1E0A038BF0790
:107F300051F7F601A7BEE89507B600FCFDCF97BE46
:107F4000E89526C08437B1F42ED02DD0F82E2BD052
:107F50003CD0F601EF2C8F010F5F1F4F84911BD097
:107F6000EA94F801C1F70894C11CD11CFA94CF0C13
:107F7000D11C0EC0853739F428D08EE10CD085E9AC
:107F80000AD08FE07ACF813511F488E018D01DD067
:107F900080E101D065CF982F8091C00085FFFCCF94
:107FA0009093C60008958091C00087FFFCCF809118
:107FB000C00084FD01C0A8958091C6000895E0E648
:107FC000F0E098E1908380830895EDDF803219F02E
:107FD00088E0F5DFFFCF84E1DECF1F93182FE3DFCA
:107FE0001150E9F7F2DF1F91089580E0E8DFEE27F6
:047FF000FF270994CA
:027FFE00040479
:00000001FF
